:10000E004B657931323A206E6578740052656665BB
:10001E0072656E63653A20317832783378340052E7
:10002E0065666572656E63653A203678382F2837B7
:10003E002D352900EEDEBE7EEDDDBD7DEBDBBB7B1F
:10004E00E7D7B7770000F88BF8F2F95BF9B7FA1437
:10005E00FA66FAB9FB03FB4AFB8FFBCFFC0BFC43A2
:10006E00FC78FCABFCDBFD08FD33FD5BFD81FDA5E3
:10007E00FDC7FDE7FE05FE21FE3CFE55FE6DFE842E
:10008E00FE99FEADFEC0FE02FEE3FEF3FF02FF1080
:10009E00FF1DFF2AFF36FF42FF4CFF56FF60FF6930
:1000AE00FF71FF79FF810007001400081708170879
:1000BE0018081A081A08180817081508130813083C
:1000CE0015081708150C13041310FFFF00041A026D
:1000DE00130217021A02130217021A021702100253
:1000EE0013020B02100213020B0210020B02FFFF8F
:1000FE0000041702130215021702FFFF0000000191
:10010E0000020003000400050006000700080009B5
:10011E00000A000B000C000D000E000F0010323410
:10012E0020506F696E742047616D650000000000FD
:10013E00000057656C636F6D6521000000000000C4
:10014E000000000000004B657934332D34343A2022
:10015E006B65792072756C6573004B657931313A38
:10016E00207374617274000000000000000053657B
:10017E006520796F7521000000000000000000006E
:10018E000000000000000000000000000000000061
:10019E000000000000000000000000000000000051
:1001AE00000000000000000000004B657931313A7C
:1001BE0020737461727400000000000000004C6532
:1001CE0076656C2031000000000000000000000089
:1001DE0000004E756D626572733A20312032203305
:1001EE00203400000000496E7075743A2000000043
:1001FE00000000000000000000004B657931333A2A
:10020E0020616E73776572000000000000004C657F
:10021E0076656C2032000000000000000000000037
:10022E0000004E756D626572733A203520362037A8
:10023E00203800000000496E7075743A20000000EE
:10024E00000000000000000000004B657931333AD9
:10025E0020616E7377657200000000000000546F1D
:10026E0020626520636F6E74696E7565642E000082
:10027E000000000000000000000000000000000070
:10028E000000000000000000000000000000000060
:10029E00000000000000000000004B657931313A8B
:1002AE0020656E64000000000000000000004B6539
:1002BE007931313A2073746172742F656E64000067
:1002CE0000004B657931323A206E657874206C658A
:1002DE0076656C0000004B657931333A20676574A2
:1002EE0020616E737765720000004B657931343A88
:1002FE002064656C657465206368617200004B65EF
:10030E007932312D32343A206E756D312D34000034
:10031E0000004B657933312D34323A202B2D782F56
:10032E002829000000004B657934332D34343A20EF
:10033E006B65792072756C65730048617665206116
:0E034E0020676F6F642074696D6521000000E8
:1009F50002420000023A0000023E0007023C0000ED
:10095D00C3EF9401EE6480948040167D787C00EDA9
:10096D001D70011CED64014C70F5EF1F70E21E80CF
:01097D00DF9A
:01097E002256
:1009E40075A0FFC280D281D282E5A020E7FBC2823B
:0109F40022E0
:08097F0012095D7D38E4FFFE62
:100987001209E48DA0C281EE4F24FF9280D282C269
:020997008222BA
:10091000D280D281D28275A0FF7F0F7E0012097F24
:100920007F0512097F7D081209877D011209877DE5
:09093000061209877D0C020987FB
:1008A800AE05AC03EFFB7A006401700474402EFEC1
:1008B800EB64024A700474142EFEEB64034A70045D
:1008C800EE2454FE74802EFDE4FFFE120987AD0469
:0408D8000F0209877B
:0A071A008F318D328B338A3489351C
:10072400753800753901E4F537120999E5322FF56A
:1007340036D3E5399400E53864809480402AE53264
:100744009536501DAB33AA34A9358537827583009D
:10075400120452FBAD32AF311208A80532053780BE
:08076400D0E4F538F53980C935
:01076C00226A
:0D0A0600EFD3940040077E6EDEFE1F80F3EC
:010A130022C0
:10076D007D1075B0F0E5B054F064F0603B7F05127C
:10077D000A06E5B054F064F0602EE5B054F0FF4485
:10078D000FF5B0E5B0540FFEE4FCEE4FFBEC90001E
:10079D004293B50304AD0480040CBC10ED75B0F0AC
:0A07AD00E5B054F0FFBFF0F8AF050F
:0107B700221F
:1009AE00EFD39400400B7EA07DA0DDFEDEFA1F800B
:0109BE00EF49
:0109BF002215
:080A14007F8C7E8CDEFEDFFA10
:010A1C0022B7
:03000B0002087375
:10087300C0E0C083C082C0D0B290E54025E02452DE
:10088300F582E43400F583E493F58CE54025E02418
:1008930053F582E43400F583E493F58AD0D0D08213
:0508A300D083D0E0321B
:0606A4008B2C8A2D892E2B
:1006AA00E4F52F758901D2AFD2A9AB2CAA2DA92EB8
:1006BA0075F002E52FA4F58285F083120452F54005
:1006CA00E52F75F002A429F9EA35F0FA9000011233
:1006DA000452F541E5407004C28C802BE540B4FF1A
:1006EA000BC28C7F1E1209AEE4F52F229000021273
:1006FA000452B54010D28CAF411209AEC28C120A14
:10070A0014052F80A5D28CAF411209AE052F809A0D
:10061B0078087C007D007BFF7A01790A7E007F22BF
:10062B0012042C752A00752B101209C012076DEFDE
:10063B0025E02408F8E6F52A08E6F52BE52A7037BD
:10064B00E52B602414601C14601424F6601F1460E6
:10065B002124FD6029240D701E12093980201207F8
:10066B00FD801B1208DC801612083A8011120A4119
:10067B00800C120A388007AF2BAE2A1204AAE52B86
:10068B006403452A60A6E52B6410452A609E7BFF18
:09069B007A0079FE1206A4809396
:1009C0007BFF7A01792C1207B87BFF7A0079B80295
:0209D00006A47B
:10093900E54345427015F542754301F53AF53B1219
:1009490007FD7BFF7A0079FE0206A4E4F542F54330
:040959001209D2228B
:1009D2007BFF7A01797C1207B87BFF7A0079DA0211
:0209E20006A469
:1007FD00053BE53B7002053A9000B4E493F53E7479
:10080D000193F53FE53B6403453A6006753C007581
:10081D003D01E53A7016E53B24FE600A14600A249A
:0D082D00027009020A1D020A26120A2F227B
:090A1D007BFF7A0179CC0207B8D5
:090A26007BFF7A02791C0207B87B
:090A2F007BFF7A02796C0207B822
:1008DC00E4F53CF53D7BFF7A00790E7D09FF1207AC
:1008EC001AE53A701EE53B24FE600B0470157BFF85
:1008FC007A00791A80067BFF7A00792DE4FD7F035C
:04090C0012071A2292
:10083A00E53F24FFFFE53E34FFFED39000B4740188
:10084A00939FEE6480F8E493648098501BE53D64BE
:10085A0001453C7013E53F14FD7B207F021208A876
:09086A00E53F153F7002153E2226
:1004AA00E53F2401FDE4353EFCC39000B674019398
:1004BA009DEC6480F8E493648098500302058EE50D
:1004CA003D6401453C600302058EEE600302058629
:1004DA00EF24FCB40C0040030205869004F375F087
:1004EA0003A4C58325F0C5837302054D02053B02AB
:1004FA00052902051702057102056B020565020549
:10050A005F02058602058602057D020577E53B64E2
:10051A0001453AAD3F70047B31805C7B358058E5FC
:10052A003B6401453AAD3F70047B3280027B3680E2
:10053A0046E53B6401453AAD3F70047B3380027B5C
:10054A00378034E53B6401453AAD3F70047B348023
:10055A00027B388022AD3F7B2B801CAD3F7B2D80F8
:10056A0016AD3F7B788010AD3F7B2F800AAD3F7B75
:10057A00288004AD3F7B297F021208A8053FE53F8A
:05058A007002053E2295
:090A38007BFF7A0279BC0207B8C9
:090A41007BFF7A03790C0207B86F
:0607B8008B2C8A2D892E16
:1007BE007F0F7E0012095D120910E4F52FF530AEA1
:1007CE002FAF307C007D1412047FAB2CE52E2FF959
:1007DE00E52D3EFAAF30E4FD12071A0530E5307014
:0E07EE0002052FC39404E52F6480948040D14F
:0107FC0022DA
:0300000002058F67
:0C058F00787FE4F6D8FD7581430205D6A4
:10035C00E709F608DFFA8046E709F208DFFA803E83
:10036C0088828C83E709F0A3DFFA8032E309F60870
:10037C00DFFA8078E309F208DFFA807088828C83D8
:10038C00E309F0A3DFFA806489828A83E0A3F6088C
:10039C00DFFA805889828A83E0A3F208DFFA804C66
:1003AC0080D280FA80C680D4806980F2803380103D
:1003BC0080A680EA809A80A880DA80E280CA8033A6
:1003CC0089828A83ECFAE493A3C8C582C8CCC5831E
:1003DC00CCF0A3C8C582C8CCC583CCDFE9DEE780EE
:1003EC000D89828A83E493A3F608DFF9ECFAA9F06D
:1003FC00EDFB2289828A83ECFAE0A3C8C582C8CCC3
:10040C00C583CCF0A3C8C582C8CCC583CCDFEADEDB
:10041C00E880DB89828A83E493A3F208DFF980CC3D
:10042C0088F0EF60010E4E60C388F0ED2402B40436
:10043C000050B9F582EB2402B4040050AF232345DD
:06044C0082239003AC7353
:10045200BB010CE58229F582E5833AF583E022505F
:1004620006E92582F8E622BBFE06E92582F8E222A9
:0D047200E58229F582E5833AF583E49322C3
:10047F00EF8DF0A4A8F0CF8CF0A428CE8DF0A42E91
:02048F00FE224B
:10099900E4FFFE120491600C0FEF70010E09E9707B
:0509A900F20A80EF22BC
:10059B0002061BE493A3F8E493A34003F68001F255
:1005AB0008DFF48029E493A3F85407240CC8C33361
:1005BB00C4540F4420C8834004F456800146F6DF30
:1005CB00E4800B01020408102040809009F5E47EC2
:1005DB00019360BCA3FF543F30E509541FFEE49325
:1005EB00A360010ECF54C025E060A840B8E493A3EC
:1005FB00FAE493A3F8E493A3C8C582C8CAC583CA17
:10060B00F0A3C8C582C8CAC583CADFE9DEE780BECE
:010A050000F0
:10049100BB010689828A83E0225002E722BBFE0269
:0904A100E32289828A83E493229C
:00000001FF
