:03000000020800F3
:0C080000787FE4F6D8FD758112020847ED
:1009A00057656C636F6D6521005370656564206FDA
:1009B0006E650053706565642074776F00537065D1
:1009C00065642074687265650053706565642066AF
:0909D0006F75720053746F700022
:060AC30001110001120008
:100A3400EFC394017480948040127E78EED39401C5
:0C0A44007480948040031E80F31F80E447
:010A50002283
:100AA90075A0FFC290D291D292E5A020E7FBC29235
:010AB900221A
:030A6C00E4FFFEA6
:100A6F00120AA98DA0C291EE4F24FF9290D292C28A
:020A7F009222C1
:1009D900D290D291D29275A0FF7F0F120A347D383E
:1009E900120A6C7F05120A34120A6C7D08120A6F0A
:0F09F9007D01120A6F7D06120A6F7D0C020A6FD4
:100A5100AE05AC03EF600474402EFE74802EFDE4FD
:0B0A6100FFFE120A6FAD040F020A6FC7
:0A0907008F088D098B0A8A0B890CFA
:10091100750F00751001E4F50E120A81E5092FF536
:100921000DD3E5109400E50F64809480402AE50919
:10093100950D501DAB0AAA0BA90C850E827583007B
:1009410012095AFBAD09AF08120A510509050E80BB
:08095100D0E4F50FF51080C998
:01095900227B
:090ABA001209D9E4FDFF0209074D
:100A0800EFD394007480948040217E06EED3940046
:100A18007480948040127DFFEDD39400748094809C
:0B0A280040031D80F31E80E41F80D5FA
:010A330022A0
:100A9600D2B4AF11120A08C2B4D2B6AF11120A0804
:030AA600C2B622B3
:10088C00E4F580F590F5B0F5A07BFF7A0979A0121C
:10089C000ABAE51230E003120A9630800F75113255
:1008AC007512017BFF7A0979A9120ABA30810F758A
:1008BC0011237512017BFF7A0979B3120ABA3082BF
:1008CC000F7511147512017BFF7A0979BD120ABAE2
:1008DC0030830F7511057512017BFF7A0979C912E6
:1008EC000ABA3084ADC2B3C2B4C2B5C2B6E4F51212
:0B08FC007BFF7A0979D4120ABA8097BA
:10080C0002088CE493A3F8E493A34003F68001F26E
:10081C0008DFF48029E493A3F85407240CC8C333ED
:10082C00C4540F4420C8834004F456800146F6DFBC
:10083C00E4800B0102040810204080900AC3E47E7F
:10084C00019360BCA3FF543F30E509541FFEE493B1
:10085C00A360010ECF54C025E060A840B8E493A378
:10086C00FAE493A3F8E493A3C8C582C8CAC583CAA3
:10087C00F0A3C8C582C8CAC583CADFE9DEE780BE5B
:010AC900002C
:10095A00BB010CE58229F582E5833AF583E0225052
:10096A0006E92582F8E622BBFE06E92582F8E2229C
:0D097A00E58229F582E5833AF583E49322B6
:100A8100E4FFFE120987600C0FEF70010E09E97097
:050A9100F20A80EF22D3
:10098700BB010689828A83E0225002E722BBFE026E
:09099700E32289828A83E49322A1
:00000001FF
