:030000000205F7FF
:0C05F700787FE4F6D8FD75816E02063EA8
:10000E000000F88BF8F2F95BF9B7FA14FA66FAB950
:10001E00FB03FB4AFB8FFBCFFC0BFC43FC78FCABDA
:10002E00FCDBFD08FD33FD5BFD81FDA5FDC7FDE796
:10003E00FE05FE21FE3CFE55FE6DFE84FE99FEADD4
:10004E00FEC0FE02FEE3FEF3FF02FF10FF1DFF2ABD
:10005E00FF36FF42FF4CFF56FF60FF69FF71FF79CD
:10006E00FF81170419041B041E04FFFF1E041B044A
:10007E00190417041408FFFF19021E04FFFF1402CF
:10008E000F04FFFF1701FFFF1E0220022304FFFFD4
:10009E00EEDEBE7EEDDDBD7DEBDBBB7BE7D7B7775E
:1000AE004D656D6F727920506169722047616D6583
:1000BE00202020204B657931313A205374617274BF
:1000CE002047616D652020204B657934332D343403
:1000DE003A2052756C6573202020200046696E64AC
:1000EE00206D61746368696E672070616972730058
:1000FE004C763A202053636F72653A2020202020E0
:10010E002020200020202020202020202020202001
:10011E0020202020202020002020202020202020F1
:10012E00202020202020202020202000436F6D62E0
:10013E006F3A202020202020202020202020000088
:10014E0047616D652052756C65733A202020202022
:10015E00202020004D6174636820706169727320E5
:10016E00696E206B65792000436F6D626F20676941
:10017E0076657320626F6E757321200031313A53AC
:10018E00746172742034333A4261636B2020200014
:10019E004C6576656C20436F6D706C6574652120BF
:1001AE002020202053636F72653A202020202020CB
:1001BE0020202020202020004D617820436F6D628A
:1001CE006F3A202020202020202020004B657931FE
:1001DE00313A204E657874204C6576656C2020008F
:1001EE0047616D65204F76657221202020202020EA
:1001FE002020200046696E616C2053636F72653A51
:10020E0020202020202020004C6576656C3A20208E
:10021E002020202020202020202020004B65793116
:10022E00313A2052657374617274202020202000B0
:10070400025C0000020E0000020C0001020800FF5F
:10071400025800FF10120001000100020002000351
:100724000003000400041046000000000000000064
:10073400000000000000000002100000020A000097
:10074400025600642022220000000100020003007F
:100754000400050006000700080009000A000B0059
:100764000C000D000E000F001002440010025E0089
:010774000084
:0F0AB200EFC3940140097E781EBE01FC1F80F146
:010AC1002212
:100AA1007580FFC290D291D292E58020E7FBC2927D
:010AB1002222
:100A6500AC07120AA17F14120AB28D80C291EC2440
:080A7500FF9290D292C292227E
:10093400D290D291D2927580FF7F0F120AB27D3885
:10094400E4FF120A657F05120AB2E4FF120A657D0C
:1009540008E4FF120A657D01E4FF120A657D06E4DE
:0B096400FF120A657D0CE4FF020A652B
:060A0B00EF2430FB7F0127
:100A1100AE05BF010474402EFEBF020474142EFE05
:100A2100BF030474542EFE74802EFDE4FF120A6588
:070A3100AD037F01020A651D
:1009DC008F688A698B6AA905856A82856983E49325
:1009EC00601CAD0109056AE56AAE697002056914FF
:0F09FC00F5828E83E493FBAF68120A1180DA2232
:0D0AC200EFD3940040077E6EDEFE1F80F330
:010ACF002204
:1008E9007D1075B0F0E5B054F064F0603B7F0512FF
:1008F9000AC2E5B054F064F0602EE5B054F0FF444C
:100909000FF5B0E5B0540FFEE4FCEE4FFBEC9000A0
:100919009E93B50304AD0480040CBC10ED75B0F0D2
:0A092900E5B054F0FFBFF0F8AF0591
:0109330022A1
:100A7D00EFD39400400B7EA07DA0DDFEDEFA1F803B
:010A8D00EF79
:010A8E002245
:03000B000209A740
:1009A700C0E0C083C082C0D0B293E55A25E0240ED0
:1009B700F582E43400F583E493F58CE55A25E024C9
:1009C7000FF582E43400F583E493F58AD0D0D08222
:0509D700D083D0E032E6
:0607E0007BFF7A00799214
:0607E6008B648A65896640
:1007EC00E4F567758901D2AFD2A9AB64AA65A96695
:1007FC0075F002E567A4F58285F08312052DF55A94
:10080C00E56775F002A429F9EA35F0FA90000112B7
:10081C00052DF55BE55A7004C28C800EE55AB4FFC9
:10082C0007C28C7F01020A7DD28C7F02120A7D05E1
:03083C006780B71B
:10083F0075600075610712089CE5612401FDE435C0
:10084F0060FC12056CAF61EF25E02412F8E6FA08A0
:10085F00E6FBED25E02412F8E6F58308E6F582EFD6
:10086F0025E02412F8A68308A682AF05EF25E02421
:10087F0012F8A60208A603E561156170021560D390
:0C088F00E5619400E5606480948050AA4C
:01089B00223A
:100A8F007BFF7A0079AE120A387BFF7A0079700209
:020A9F0007E668
:0A03750025E02446F8760008760122
:10037F007BFF7A0079FE120A38E50D2430FB7D03EE
:10038F00E4FF120A11AE0EAF0F7C007D6412056CF4
:10039F00EF2430FB7D0BE4FF120A11AE0EAF0F7C82
:1003AF00007D6412056C7E007F0ACFCDCFCECCCE00
:1003BF0012056CEF2430FB7D0CE4FF120A11AE0E18
:1003CF00AF0F7C007D0A12056CED2430FB7D0DE430
:1003DF00FF120A11AE0AAF0B7C007D0A12056CEFFB
:1003EF002430FB7D077F03120A11AE0AAF0B7C008E
:1003FF007D0A12056CED2430FB7D087F03120A1174
:10040F00E4FAEA25E02446F8E6FE08E664014E70B9
:10041F0033EAC39404EA501525E02412F808E624C1
:10042F0030FBEA75F003A404FD7F01801425E0245E
:10043F0012F808E62430FBEA75F003A424F5FD7FDB
:08044F0002120A110ABA08BAF0
:010457002282
:090AD0007BFF7A01794E020A381D
:100683007BFF7A01799E120A38AE0EAF0F7C007D94
:100693006412056C7D07120A0BAE0EAF0F7C007D52
:1006A3006412056C7E007F0ACFCDCFCECCCE12056F
:1006B3006C7D08120A0BAE0EAF0F7C007D0A12058B
:1006C3006CED2430FB7D097F01120A11AE0AAF0BDA
:1006D3007C007D0A12056CEF2430FB7D0B7F021238
:1006E3000A11AE0AAF0B7C007D0A12056CED2430B3
:1006F300FB7D0C7F02120A117BFF7A00797A0207D5
:01070300E60F
:100776007BFF7A0179EE120A38AE0EAF0F7C007D50
:100786000A12056CEF2430FB7D0D7F01120A11AEB3
:100796000EAF0F7C007D0A12056CED2430FB7D0E3A
:1007A6007F01120A11AE0CAF0D7C007D0A12056C9A
:1007B600EF2430FB7D077F02120A11AE0CAF0D7CD1
:1007C600007D0A12056CED2430FB7D087F02120ABB
:0A07D600117BFF7A00797A0207E632
:10096F00C3E5119404E510648094804010E4F55CB5
:10097F00F55D050DE50D7002050C020683D3E557F5
:10098F009400E55664809480500DE4F55CF55DF5B8
:08099F005E755F01120776226C
:10023E00E4F562F563C3EF9404EE6480948040109D
:10024E00D3EF9407EE648094805005C37407801F2B
:10025E00C3EF9408EE648094805003020374D3EFCE
:10026E00940BEE648094804003020374C3740F9F5A
:10027E00F561E49EF560AF61EF25E02446F8E6FCFB
:10028E0008E64C6003020374E509F4450870138513
:10029E006008856109EF1203757BFF7A007992027F
:1002AE0007E6E559F44558600302037485605885E6
:1002BE006159E5611203751207E0E55925E0241234
:1002CE00F8E6FE08E6FFE50925E02412F8E6FC084C
:1002DE00E66F7002EC6E7057050BE50B7002050AA7
:1002EE00AC0CAD0DAE0AFF12055AEF25E0FFEE3352
:1002FE00FEEF240AF563E43EF562E563250FF50F84
:10030E00E562350EF50E0511E51170020510D3E507
:10031E000B9401E50A648094807BFF40067A007995
:10032E009680047A0079861207E612096F802BE513
:10033E000925E02446F8E4F608F6E55925E02446BA
:10034E00F8E4F608F6F50AF50B7BFF7A00798C12C5
:10035E0007E67F64120A7D12037F7508007509FF98
:06036E007558007559FFEF
:010374002266
:060A38008B648A658966EB
:100A3E00120934E4F567E56775F014A42566F9E547
:100A4E006535F0FAAB01E4FDAF671209DC0567E529
:060A5E0067C3940440E0B0
:010A6400226F
:10045800750C00750D01120A8F1208E9EF25E024CA
:1004680022F8E6F54408E6F545E54460030205048C
:10047800E54524F370030204FF24FD70030205110F
:10048800240D7078E55D455C7063F55C755D01E58C
:100498005F455E6019E4F55EF55FF50C750D01F5D5
:1004A8000EF50FF510F511F5567557648012C3E572
:1004B800119404E510648094804005E4F510F5116A
:1004C800E4F50AF50B7F107846E4F608DFFC7F08B0
:1004D8007508007509FF7558007559FF12083F1215
:1004E800037F7BFF7A0079701207E6801CE4F55CD5
:1004F800F55D1206838012120AD0800DE55D455C19
:100508006007AF45AE4412023EE5456403454470BA
:1005180003020461E5456410454470030204611256
:0505280007E002046180
:10060300020458E493A3F8E493A34003F68001F2B1
:1006130008DFF48029E493A3F85407240CC8C333F8
:10062300C4540F4420C8834004F456800146F6DFC7
:10063300E4800B0102040810204080900704E47E4C
:10064300019360BCA3FF543F30E509541FFEE493BC
:10065300A360010ECF54C025E060A840B8E493A383
:10066300FAE493A3F8E493A3C8C582C8CAC583CAAE
:10067300F0A3C8C582C8CAC583CADFE9DEE780BE66
:010775000083
:10052D00BB010CE58229F582E5833AF583E0225083
:10053D0006E92582F8E622BBFE06E92582F8E222CD
:0D054D00E58229F582E5833AF583E49322E7
:10055A00EF8DF0A4A8F0CF8CF0A428CE8DF0A42EB5
:02056A00FE226F
:10056C00C2D5EC30E709B2D5E4C39DFDE49CFCEEAA
:10057C0030E715B2D5E4C39FFFE49EFE1205A2C37B
:10058C00E49DFDE49CFC80031205A230D507C3E476
:06059C009FFFE49EFE2219
:10089C00AC6BAD6CAE6DAF6E7810EC4D4E4F700412
:1008AC007CA57DA5C3EC13FCED13FDEE13FEEF133D
:1008BC00FF5010EC64CCFCED644CFDEE644EFEEF8E
:1008CC0064CEFFD8DF8C6B8D6C8E6D8F6EEE547F8B
:0D08DC00FE228E6B8F6C74A5F56DF56E22FB
:1005A200BC000BBE0029EF8DF084FFADF022E4CC3D
:1005B200F875F008EF2FFFEE33FEEC33FCEE9DEC06
:1005C200984005FCEE9DFE0FD5F0E9E4CEFD22ED4C
:1005D200F8F5F0EE8420D21CFEADF075F008EF2F96
:1005E200FFED33FD4007985006D5F0F222C398FD87
:0505F2000FD5F0EA2224
:00000001FF
